{
  "contractName": "Converter",
  "abi": [
    {
      "constant": true,
      "inputs": [],
      "name": "sellRate",
      "outputs": [
        {
          "name": "",
          "type": "uint256"
        }
      ],
      "payable": false,
      "stateMutability": "view",
      "type": "function"
    },
    {
      "constant": false,
      "inputs": [],
      "name": "renounceOwnership",
      "outputs": [],
      "payable": false,
      "stateMutability": "nonpayable",
      "type": "function"
    },
    {
      "constant": true,
      "inputs": [],
      "name": "owner",
      "outputs": [
        {
          "name": "",
          "type": "address"
        }
      ],
      "payable": false,
      "stateMutability": "view",
      "type": "function"
    },
    {
      "constant": false,
      "inputs": [
        {
          "name": "_newOwner",
          "type": "address"
        }
      ],
      "name": "transferOwnership",
      "outputs": [],
      "payable": false,
      "stateMutability": "nonpayable",
      "type": "function"
    },
    {
      "constant": true,
      "inputs": [],
      "name": "buyRate",
      "outputs": [
        {
          "name": "",
          "type": "uint256"
        }
      ],
      "payable": false,
      "stateMutability": "view",
      "type": "function"
    },
    {
      "anonymous": false,
      "inputs": [
        {
          "indexed": true,
          "name": "previousOwner",
          "type": "address"
        }
      ],
      "name": "OwnershipRenounced",
      "type": "event"
    },
    {
      "anonymous": false,
      "inputs": [
        {
          "indexed": true,
          "name": "previousOwner",
          "type": "address"
        },
        {
          "indexed": true,
          "name": "newOwner",
          "type": "address"
        }
      ],
      "name": "OwnershipTransferred",
      "type": "event"
    },
    {
      "constant": true,
      "inputs": [
        {
          "name": "_dollar",
          "type": "uint256"
        }
      ],
      "name": "buy",
      "outputs": [
        {
          "name": "",
          "type": "uint256"
        }
      ],
      "payable": false,
      "stateMutability": "view",
      "type": "function"
    },
    {
      "constant": true,
      "inputs": [
        {
          "name": "_eth",
          "type": "uint256"
        }
      ],
      "name": "sell",
      "outputs": [
        {
          "name": "",
          "type": "uint256"
        }
      ],
      "payable": false,
      "stateMutability": "view",
      "type": "function"
    },
    {
      "constant": false,
      "inputs": [
        {
          "name": "_newSellRate",
          "type": "uint256"
        },
        {
          "name": "_newBuyRate",
          "type": "uint256"
        }
      ],
      "name": "changeRates",
      "outputs": [],
      "payable": false,
      "stateMutability": "nonpayable",
      "type": "function"
    }
  ],
  "bytecode": "0x608060405260008054600160a060020a03191633179055610355806100256000396000f30060806040526004361061008d5763ffffffff7c010000000000000000000000000000000000000000000000000000000060003504166349231b2881146100925780636217229b146100af578063715018a6146100d65780638da5cb5b146100eb578063d96a094a1461011c578063e4849b3214610134578063f2fde38b1461014c578063fc37987b1461016d575b600080fd5b34801561009e57600080fd5b506100ad600435602435610182565b005b3480156100bb57600080fd5b506100c46101be565b60408051918252519081900360200190f35b3480156100e257600080fd5b506100ad6101c4565b3480156100f757600080fd5b50610100610230565b60408051600160a060020a039092168252519081900360200190f35b34801561012857600080fd5b506100c460043561023f565b34801561014057600080fd5b506100c4600435610255565b34801561015857600080fd5b506100ad600160a060020a0360043516610283565b34801561017957600080fd5b506100c46102a6565b600054600160a060020a0316331461019957600080fd5b600082116101a657600080fd5b600081116101b357600080fd5b600191909155600255565b60015481565b600054600160a060020a031633146101db57600080fd5b60008054604051600160a060020a03909116917ff8df31144d9c2f0f6b59d69b8b98abd5459d07f2742c4df920b25aae33c6482091a26000805473ffffffffffffffffffffffffffffffffffffffff19169055565b600054600160a060020a031681565b60025460009061271090830281025b0492915050565b6000670de0b6b3a764000080600154670de0b6b3a764000085020281151561027957fe5b0481151561024e57fe5b600054600160a060020a0316331461029a57600080fd5b6102a3816102ac565b50565b60025481565b600160a060020a03811615156102c157600080fd5b60008054604051600160a060020a03808516939216917f8be0079c531659141344cd1fd0a4f28419497f9722a3daafe3b4186f6b6457e091a36000805473ffffffffffffffffffffffffffffffffffffffff1916600160a060020a03929092169190911790555600a165627a7a72305820c31215c3a9c96a42d34899e41b6c1aa04a03e934ecf280ff24127cd5bbfbdaa30029",
  "source": "pragma solidity ^0.4.24;\n\nimport \"./Ownable.sol\";\n\n\n/**\n * @title Converter ETH / US DOLLAR\n*/\ncontract Converter is Ownable {\n\n  uint256 constant FD = 10 ** 4; // Four decimals\n  uint256 constant ETHER = 10 ** 18;\n\t\n\tuint256 public sellRate; // sell eth for US dollar\n\tuint256 public buyRate; // buy US dollar for eth\n\t\n\t/**\n   * @dev Function to compute ETH for US Dollar\n   * @param _dollar The amount of US dollar (in WEI) to change.\n   * @return The amount of ETH to receive\n   */\n\tfunction buy(\n\t\tuint256 _dollar\n\t)\n\t external\n\t view\n\t returns (uint256)\n\t{\n\t\treturn ((_dollar * FD) * buyRate) / FD;\n\t}\n\n\t/**\n   * @dev Function to compute US Dollar for ETH \n   * @param _eth The amount of ETH (in WEI) to change.\n   * @return The amount of US dollar to receive\n   */\n\tfunction sell(\n\t\tuint256 _eth\n\t)\n\t external\n\t view\n\t returns (uint256)\n\t{\n\t\treturn (((_eth * ETHER) * sellRate) / ETHER) / ETHER;\n\t}\n\t\n\t/**\n   * @dev Function to update the sell and buy rate value\n   * @param _newSellRate The new sell rate in US dollar (WEI formatted).\n   * @param _newBuyRate The new buy rate in ETH (WEI formatted).\n   */\n\tfunction changeRates(\n\t\tuint256 _newSellRate,\n\t\tuint256 _newBuyRate\n\t)\n\t\texternal\n\t\tonlyOwner\n\t{\n\t\trequire(_newSellRate > 0);\n\t\trequire(_newBuyRate > 0);\n\t\t\n\t\tsellRate = _newSellRate;\n\t\tbuyRate = _newBuyRate;\n\t}\n\t\n}\n",
  "sourcePath": "/Users/mfitussi/Documents/Dev/Crypto/Converter/contracts/Converter.sol",
  "compiler": {
    "name": "solc",
    "version": "0.4.24+commit.e67f0147.Emscripten.clang"
  },
  "schemaVersion": "2.0.0",
  "updatedAt": "2018-06-18T06:53:36.427Z"
}